{
  "abi": [
    {
      "inputs": [
        {
          "internalType": "string",
          "name": "_name",
          "type": "string"
        }
      ],
      "stateMutability": "nonpayable",
      "type": "constructor"
    },
    {
      "anonymous": false,
      "inputs": [
        {
          "indexed": true,
          "internalType": "address",
          "name": "previousOwner",
          "type": "address"
        },
        {
          "indexed": true,
          "internalType": "address",
          "name": "newOwner",
          "type": "address"
        }
      ],
      "name": "OwnershipTransferred",
      "type": "event"
    },
    {
      "inputs": [],
      "name": "address1",
      "outputs": [
        {
          "internalType": "string",
          "name": "",
          "type": "string"
        }
      ],
      "stateMutability": "view",
      "type": "function"
    },
    {
      "inputs": [],
      "name": "address2",
      "outputs": [
        {
          "internalType": "string",
          "name": "",
          "type": "string"
        }
      ],
      "stateMutability": "view",
      "type": "function"
    },
    {
      "inputs": [],
      "name": "address3",
      "outputs": [
        {
          "internalType": "string",
          "name": "",
          "type": "string"
        }
      ],
      "stateMutability": "view",
      "type": "function"
    },
    {
      "inputs": [],
      "name": "city",
      "outputs": [
        {
          "internalType": "string",
          "name": "",
          "type": "string"
        }
      ],
      "stateMutability": "view",
      "type": "function"
    },
    {
      "inputs": [],
      "name": "country",
      "outputs": [
        {
          "internalType": "string",
          "name": "",
          "type": "string"
        }
      ],
      "stateMutability": "view",
      "type": "function"
    },
    {
      "inputs": [],
      "name": "email",
      "outputs": [
        {
          "internalType": "string",
          "name": "",
          "type": "string"
        }
      ],
      "stateMutability": "view",
      "type": "function"
    },
    {
      "inputs": [],
      "name": "entityType",
      "outputs": [
        {
          "internalType": "uint8",
          "name": "",
          "type": "uint8"
        }
      ],
      "stateMutability": "view",
      "type": "function"
    },
    {
      "inputs": [],
      "name": "entityTypeHash",
      "outputs": [
        {
          "internalType": "bytes32",
          "name": "",
          "type": "bytes32"
        }
      ],
      "stateMutability": "view",
      "type": "function"
    },
    {
      "inputs": [],
      "name": "govID",
      "outputs": [
        {
          "internalType": "string",
          "name": "",
          "type": "string"
        }
      ],
      "stateMutability": "view",
      "type": "function"
    },
    {
      "inputs": [],
      "name": "isInfoCompleted",
      "outputs": [
        {
          "internalType": "bool",
          "name": "",
          "type": "bool"
        }
      ],
      "stateMutability": "view",
      "type": "function"
    },
    {
      "inputs": [],
      "name": "name",
      "outputs": [
        {
          "internalType": "string",
          "name": "",
          "type": "string"
        }
      ],
      "stateMutability": "view",
      "type": "function"
    },
    {
      "inputs": [],
      "name": "owner",
      "outputs": [
        {
          "internalType": "address",
          "name": "",
          "type": "address"
        }
      ],
      "stateMutability": "view",
      "type": "function"
    },
    {
      "inputs": [],
      "name": "phone1",
      "outputs": [
        {
          "internalType": "string",
          "name": "",
          "type": "string"
        }
      ],
      "stateMutability": "view",
      "type": "function"
    },
    {
      "inputs": [],
      "name": "phone2",
      "outputs": [
        {
          "internalType": "string",
          "name": "",
          "type": "string"
        }
      ],
      "stateMutability": "view",
      "type": "function"
    },
    {
      "inputs": [],
      "name": "renounceOwnership",
      "outputs": [],
      "stateMutability": "nonpayable",
      "type": "function"
    },
    {
      "inputs": [
        {
          "internalType": "string",
          "name": "_address1",
          "type": "string"
        },
        {
          "internalType": "string",
          "name": "_address2",
          "type": "string"
        },
        {
          "internalType": "string",
          "name": "_address3",
          "type": "string"
        },
        {
          "internalType": "string",
          "name": "_city",
          "type": "string"
        },
        {
          "internalType": "string",
          "name": "_state",
          "type": "string"
        },
        {
          "internalType": "string",
          "name": "_country",
          "type": "string"
        }
      ],
      "name": "setAddressInfo",
      "outputs": [
        {
          "internalType": "bool",
          "name": "",
          "type": "bool"
        }
      ],
      "stateMutability": "nonpayable",
      "type": "function"
    },
    {
      "inputs": [
        {
          "internalType": "string",
          "name": "_email",
          "type": "string"
        },
        {
          "internalType": "string",
          "name": "_phone1",
          "type": "string"
        },
        {
          "internalType": "string",
          "name": "_phone2",
          "type": "string"
        }
      ],
      "name": "setContactInfo",
      "outputs": [
        {
          "internalType": "bool",
          "name": "",
          "type": "bool"
        }
      ],
      "stateMutability": "nonpayable",
      "type": "function"
    },
    {
      "inputs": [
        {
          "internalType": "string",
          "name": "_taxID",
          "type": "string"
        },
        {
          "internalType": "string",
          "name": "_govID",
          "type": "string"
        }
      ],
      "name": "setGovIdInfo",
      "outputs": [
        {
          "internalType": "bool",
          "name": "",
          "type": "bool"
        }
      ],
      "stateMutability": "nonpayable",
      "type": "function"
    },
    {
      "inputs": [],
      "name": "state",
      "outputs": [
        {
          "internalType": "string",
          "name": "",
          "type": "string"
        }
      ],
      "stateMutability": "view",
      "type": "function"
    },
    {
      "inputs": [],
      "name": "taxID",
      "outputs": [
        {
          "internalType": "string",
          "name": "",
          "type": "string"
        }
      ],
      "stateMutability": "view",
      "type": "function"
    },
    {
      "inputs": [
        {
          "internalType": "address",
          "name": "newOwner",
          "type": "address"
        }
      ],
      "name": "transferOwnership",
      "outputs": [],
      "stateMutability": "nonpayable",
      "type": "function"
    }
  ],
  "bytecode": {
    "object": "0x6a30b9b9b7b1b4b0ba34b7b760a91b60a052600b60805260ab6040527f32a97f407b0363cc9cb5aa9c96b891595f02f468af00671be311fefb02cac9e6600e553480156200004c57600080fd5b5060405162000e0538038062000e058339810160408190526200006f916200010f565b8060026200007d33620000a9565b60016200008b838262000273565b506002805460ff191660ff92909216919091179055506200033f9050565b600080546001600160a01b038381166001600160a01b0319831681178455604051919092169283917f8be0079c531659141344cd1fd0a4f28419497f9722a3daafe3b4186f6b6457e09190a35050565b634e487b7160e01b600052604160045260246000fd5b600060208083850312156200012357600080fd5b82516001600160401b03808211156200013b57600080fd5b818501915085601f8301126200015057600080fd5b815181811115620001655762000165620000f9565b604051601f8201601f19908116603f01168101908382118183101715620001905762000190620000f9565b816040528281528886848701011115620001a957600080fd5b600093505b82841015620001cd5784840186015181850187015292850192620001ae565b600086848301015280965050505050505092915050565b600181811c90821680620001f957607f821691505b6020821081036200021a57634e487b7160e01b600052602260045260246000fd5b50919050565b601f8211156200026e57600081815260208120601f850160051c81016020861015620002495750805b601f850160051c820191505b818110156200026a5782815560010162000255565b5050505b505050565b81516001600160401b038111156200028f576200028f620000f9565b620002a781620002a08454620001e4565b8462000220565b602080601f831160018114620002df5760008415620002c65750858301515b600019600386901b1c1916600185901b1785556200026a565b600085815260208120601f198616915b828110156200031057888601518255948401946001909101908401620002ef565b50858210156200032f5787850151600019600388901b60f8161c191681555b5050505050600190811b01905550565b610ab6806200034f6000396000f3fe608060405234801561001057600080fd5b50600436106101375760003560e01c80638da5cb5b116100b8578063c19d93fb1161007c578063c19d93fb1461022b578063d729569014610233578063d8b0b49914610246578063f2fde38b1461024e578063fd0160fe14610261578063fe6eb2481461026957600080fd5b80638da5cb5b146101e557806399bce2df146102005780639eea4a3a14610208578063ae15b19714610210578063ae18836b1461022357600080fd5b80635605e135116100ff5780635605e1351461017a578063715018a61461019d57806373b0672a146101a7578063820e93f5146101be578063838453fd146101c657600080fd5b806306fdde031461013c5780631e38046c1461015a57806326ffbdfd146101625780633a36399e1461016a57806351afd31614610172575b600080fd5b610144610271565b6040516101519190610635565b60405180910390f35b6101446102ff565b61014461030c565b610144610319565b610144610326565b61018d610188366004610726565b610333565b6040519015158152602001610151565b6101a5610366565b005b6101b0600e5481565b604051908152602001610151565b61014461037a565b6002546101d39060ff1681565b60405160ff9091168152602001610151565b6000546040516001600160a01b039091168152602001610151565b610144610387565b610144610394565b61018d61021e3660046107ae565b6103a1565b61018d6103fe565b6101446104b4565b61018d6102413660046108a3565b6104c1565b6101446104e6565b6101a561025c366004610907565b6104f3565b610144610571565b61014461057e565b6001805461027e90610937565b80601f01602080910402602001604051908101604052809291908181526020018280546102aa90610937565b80156102f75780601f106102cc576101008083540402835291602001916102f7565b820191906000526020600020905b8154815290600101906020018083116102da57829003601f168201915b505050505081565b6005805461027e90610937565b6009805461027e90610937565b6003805461027e90610937565b600a805461027e90610937565b6000600b61034185826109c0565b50600c61034e84826109c0565b50600d61035b83826109c0565b506001949350505050565b61036e61058b565b61037860006105e5565b565b600b805461027e90610937565b600c805461027e90610937565b6004805461027e90610937565b600060036103af88826109c0565b5060046103bc87826109c0565b5060056103c986826109c0565b5060066103d685826109c0565b5060076103e384826109c0565b5060086103f083826109c0565b506001979650505050505050565b600060016003805461040f90610937565b9050101561041d5750600090565b60016006805461042c90610937565b9050101561043a5750600090565b60016008805461044990610937565b905010156104575750600090565b60016007805461046690610937565b905010156104745750600090565b6001600b805461048390610937565b905010156104915750600090565b6001600980546104a090610937565b905010156104ae5750600090565b50600190565b6007805461027e90610937565b600060096104cf84826109c0565b50600a6104dc83826109c0565b5060019392505050565b6008805461027e90610937565b6104fb61058b565b6001600160a01b0381166105655760405162461bcd60e51b815260206004820152602660248201527f4f776e61626c653a206e6577206f776e657220697320746865207a65726f206160448201526564647265737360d01b60648201526084015b60405180910390fd5b61056e816105e5565b50565b6006805461027e90610937565b600d805461027e90610937565b6000546001600160a01b031633146103785760405162461bcd60e51b815260206004820181905260248201527f4f776e61626c653a2063616c6c6572206973206e6f7420746865206f776e6572604482015260640161055c565b600080546001600160a01b038381166001600160a01b0319831681178455604051919092169283917f8be0079c531659141344cd1fd0a4f28419497f9722a3daafe3b4186f6b6457e09190a35050565b600060208083528351808285015260005b8181101561066257858101830151858201604001528201610646565b506000604082860101526040601f19601f8301168501019250505092915050565b634e487b7160e01b600052604160045260246000fd5b600082601f8301126106aa57600080fd5b813567ffffffffffffffff808211156106c5576106c5610683565b604051601f8301601f19908116603f011681019082821181831017156106ed576106ed610683565b8160405283815286602085880101111561070657600080fd5b836020870160208301376000602085830101528094505050505092915050565b60008060006060848603121561073b57600080fd5b833567ffffffffffffffff8082111561075357600080fd5b61075f87838801610699565b9450602086013591508082111561077557600080fd5b61078187838801610699565b9350604086013591508082111561079757600080fd5b506107a486828701610699565b9150509250925092565b60008060008060008060c087890312156107c757600080fd5b863567ffffffffffffffff808211156107df57600080fd5b6107eb8a838b01610699565b9750602089013591508082111561080157600080fd5b61080d8a838b01610699565b9650604089013591508082111561082357600080fd5b61082f8a838b01610699565b9550606089013591508082111561084557600080fd5b6108518a838b01610699565b9450608089013591508082111561086757600080fd5b6108738a838b01610699565b935060a089013591508082111561088957600080fd5b5061089689828a01610699565b9150509295509295509295565b600080604083850312156108b657600080fd5b823567ffffffffffffffff808211156108ce57600080fd5b6108da86838701610699565b935060208501359150808211156108f057600080fd5b506108fd85828601610699565b9150509250929050565b60006020828403121561091957600080fd5b81356001600160a01b038116811461093057600080fd5b9392505050565b600181811c9082168061094b57607f821691505b60208210810361096b57634e487b7160e01b600052602260045260246000fd5b50919050565b601f8211156109bb57600081815260208120601f850160051c810160208610156109985750805b601f850160051c820191505b818110156109b7578281556001016109a4565b5050505b505050565b815167ffffffffffffffff8111156109da576109da610683565b6109ee816109e88454610937565b84610971565b602080601f831160018114610a235760008415610a0b5750858301515b600019600386901b1c1916600185901b1785556109b7565b600085815260208120601f198616915b82811015610a5257888601518255948401946001909101908401610a33565b5085821015610a705787850151600019600388901b60f8161c191681555b5050505050600190811b0190555056fea2646970667358221220414b4b36f219c63e327f40926f90bc43f28424a02e1cc67f1a556d28ecd41f5364736f6c63430008110033",
    "linkReferences": {}
  },
  "methodIdentifiers": {
    "address1()": "3a36399e",
    "address2()": "9eea4a3a",
    "address3()": "1e38046c",
    "city()": "fd0160fe",
    "country()": "d8b0b499",
    "email()": "820e93f5",
    "entityType()": "838453fd",
    "entityTypeHash()": "73b0672a",
    "govID()": "51afd316",
    "isInfoCompleted()": "ae18836b",
    "name()": "06fdde03",
    "owner()": "8da5cb5b",
    "phone1()": "99bce2df",
    "phone2()": "fe6eb248",
    "renounceOwnership()": "715018a6",
    "setAddressInfo(string,string,string,string,string,string)": "ae15b197",
    "setContactInfo(string,string,string)": "5605e135",
    "setGovIdInfo(string,string)": "d7295690",
    "state()": "c19d93fb",
    "taxID()": "26ffbdfd",
    "transferOwnership(address)": "f2fde38b"
  },
  "id": 0
}