{
  "abi": [
    {
      "inputs": [
        {
          "internalType": "string",
          "name": "_name",
          "type": "string"
        },
        {
          "internalType": "uint8",
          "name": "_entityType",
          "type": "uint8"
        }
      ],
      "stateMutability": "nonpayable",
      "type": "constructor"
    },
    {
      "anonymous": false,
      "inputs": [
        {
          "indexed": true,
          "internalType": "address",
          "name": "previousOwner",
          "type": "address"
        },
        {
          "indexed": true,
          "internalType": "address",
          "name": "newOwner",
          "type": "address"
        }
      ],
      "name": "OwnershipTransferred",
      "type": "event"
    },
    {
      "inputs": [],
      "name": "address1",
      "outputs": [
        {
          "internalType": "string",
          "name": "",
          "type": "string"
        }
      ],
      "stateMutability": "view",
      "type": "function"
    },
    {
      "inputs": [],
      "name": "address2",
      "outputs": [
        {
          "internalType": "string",
          "name": "",
          "type": "string"
        }
      ],
      "stateMutability": "view",
      "type": "function"
    },
    {
      "inputs": [],
      "name": "address3",
      "outputs": [
        {
          "internalType": "string",
          "name": "",
          "type": "string"
        }
      ],
      "stateMutability": "view",
      "type": "function"
    },
    {
      "inputs": [],
      "name": "city",
      "outputs": [
        {
          "internalType": "string",
          "name": "",
          "type": "string"
        }
      ],
      "stateMutability": "view",
      "type": "function"
    },
    {
      "inputs": [],
      "name": "country",
      "outputs": [
        {
          "internalType": "string",
          "name": "",
          "type": "string"
        }
      ],
      "stateMutability": "view",
      "type": "function"
    },
    {
      "inputs": [],
      "name": "email",
      "outputs": [
        {
          "internalType": "string",
          "name": "",
          "type": "string"
        }
      ],
      "stateMutability": "view",
      "type": "function"
    },
    {
      "inputs": [],
      "name": "entityType",
      "outputs": [
        {
          "internalType": "uint8",
          "name": "",
          "type": "uint8"
        }
      ],
      "stateMutability": "view",
      "type": "function"
    },
    {
      "inputs": [],
      "name": "govID",
      "outputs": [
        {
          "internalType": "string",
          "name": "",
          "type": "string"
        }
      ],
      "stateMutability": "view",
      "type": "function"
    },
    {
      "inputs": [],
      "name": "isInfoCompleted",
      "outputs": [
        {
          "internalType": "bool",
          "name": "",
          "type": "bool"
        }
      ],
      "stateMutability": "view",
      "type": "function"
    },
    {
      "inputs": [],
      "name": "name",
      "outputs": [
        {
          "internalType": "string",
          "name": "",
          "type": "string"
        }
      ],
      "stateMutability": "view",
      "type": "function"
    },
    {
      "inputs": [],
      "name": "owner",
      "outputs": [
        {
          "internalType": "address",
          "name": "",
          "type": "address"
        }
      ],
      "stateMutability": "view",
      "type": "function"
    },
    {
      "inputs": [],
      "name": "phone1",
      "outputs": [
        {
          "internalType": "string",
          "name": "",
          "type": "string"
        }
      ],
      "stateMutability": "view",
      "type": "function"
    },
    {
      "inputs": [],
      "name": "phone2",
      "outputs": [
        {
          "internalType": "string",
          "name": "",
          "type": "string"
        }
      ],
      "stateMutability": "view",
      "type": "function"
    },
    {
      "inputs": [],
      "name": "renounceOwnership",
      "outputs": [],
      "stateMutability": "nonpayable",
      "type": "function"
    },
    {
      "inputs": [
        {
          "internalType": "string",
          "name": "_address1",
          "type": "string"
        },
        {
          "internalType": "string",
          "name": "_address2",
          "type": "string"
        },
        {
          "internalType": "string",
          "name": "_address3",
          "type": "string"
        },
        {
          "internalType": "string",
          "name": "_city",
          "type": "string"
        },
        {
          "internalType": "string",
          "name": "_state",
          "type": "string"
        },
        {
          "internalType": "string",
          "name": "_country",
          "type": "string"
        }
      ],
      "name": "setAddressInfo",
      "outputs": [
        {
          "internalType": "bool",
          "name": "",
          "type": "bool"
        }
      ],
      "stateMutability": "nonpayable",
      "type": "function"
    },
    {
      "inputs": [
        {
          "internalType": "string",
          "name": "_email",
          "type": "string"
        },
        {
          "internalType": "string",
          "name": "_phone1",
          "type": "string"
        },
        {
          "internalType": "string",
          "name": "_phone2",
          "type": "string"
        }
      ],
      "name": "setContactInfo",
      "outputs": [
        {
          "internalType": "bool",
          "name": "",
          "type": "bool"
        }
      ],
      "stateMutability": "nonpayable",
      "type": "function"
    },
    {
      "inputs": [
        {
          "internalType": "string",
          "name": "_taxID",
          "type": "string"
        },
        {
          "internalType": "string",
          "name": "_govID",
          "type": "string"
        }
      ],
      "name": "setGovIdInfo",
      "outputs": [
        {
          "internalType": "bool",
          "name": "",
          "type": "bool"
        }
      ],
      "stateMutability": "nonpayable",
      "type": "function"
    },
    {
      "inputs": [],
      "name": "state",
      "outputs": [
        {
          "internalType": "string",
          "name": "",
          "type": "string"
        }
      ],
      "stateMutability": "view",
      "type": "function"
    },
    {
      "inputs": [],
      "name": "taxID",
      "outputs": [
        {
          "internalType": "string",
          "name": "",
          "type": "string"
        }
      ],
      "stateMutability": "view",
      "type": "function"
    },
    {
      "inputs": [
        {
          "internalType": "address",
          "name": "newOwner",
          "type": "address"
        }
      ],
      "name": "transferOwnership",
      "outputs": [],
      "stateMutability": "nonpayable",
      "type": "function"
    }
  ],
  "bytecode": {
    "object": "0x60806040523480156200001157600080fd5b5060405162000dcd38038062000dcd8339810160408190526200003491620000e6565b6200003f3362000069565b60016200004d83826200025d565b506002805460ff191660ff929092169190911790555062000329565b600080546001600160a01b038381166001600160a01b0319831681178455604051919092169283917f8be0079c531659141344cd1fd0a4f28419497f9722a3daafe3b4186f6b6457e09190a35050565b634e487b7160e01b600052604160045260246000fd5b805160ff81168114620000e157600080fd5b919050565b60008060408385031215620000fa57600080fd5b82516001600160401b03808211156200011257600080fd5b818501915085601f8301126200012757600080fd5b8151818111156200013c576200013c620000b9565b604051601f8201601f19908116603f01168101908382118183101715620001675762000167620000b9565b816040528281526020935088848487010111156200018457600080fd5b600091505b82821015620001a8578482018401518183018501529083019062000189565b6000848483010152809650505050620001c3818601620000cf565b925050509250929050565b600181811c90821680620001e357607f821691505b6020821081036200020457634e487b7160e01b600052602260045260246000fd5b50919050565b601f8211156200025857600081815260208120601f850160051c81016020861015620002335750805b601f850160051c820191505b8181101562000254578281556001016200023f565b5050505b505050565b81516001600160401b03811115620002795762000279620000b9565b62000291816200028a8454620001ce565b846200020a565b602080601f831160018114620002c95760008415620002b05750858301515b600019600386901b1c1916600185901b17855562000254565b600085815260208120601f198616915b82811015620002fa57888601518255948401946001909101908401620002d9565b5085821015620003195787850151600019600388901b60f8161c191681555b5050505050600190811b01905550565b610a9480620003396000396000f3fe608060405234801561001057600080fd5b506004361061012c5760003560e01c806399bce2df116100ad578063d729569011610071578063d729569014610211578063d8b0b49914610224578063f2fde38b1461022c578063fd0160fe1461023f578063fe6eb2481461024757600080fd5b806399bce2df146101de5780639eea4a3a146101e6578063ae15b197146101ee578063ae18836b14610201578063c19d93fb1461020957600080fd5b80635605e135116100f45780635605e1351461016f578063715018a614610192578063820e93f51461019c578063838453fd146101a45780638da5cb5b146101c357600080fd5b806306fdde03146101315780631e38046c1461014f57806326ffbdfd146101575780633a36399e1461015f57806351afd31614610167575b600080fd5b61013961024f565b6040516101469190610613565b60405180910390f35b6101396102dd565b6101396102ea565b6101396102f7565b610139610304565b61018261017d366004610704565b610311565b6040519015158152602001610146565b61019a610344565b005b610139610358565b6002546101b19060ff1681565b60405160ff9091168152602001610146565b6000546040516001600160a01b039091168152602001610146565b610139610365565b610139610372565b6101826101fc36600461078c565b61037f565b6101826103dc565b610139610492565b61018261021f366004610881565b61049f565b6101396104c4565b61019a61023a3660046108e5565b6104d1565b61013961054f565b61013961055c565b6001805461025c90610915565b80601f016020809104026020016040519081016040528092919081815260200182805461028890610915565b80156102d55780601f106102aa576101008083540402835291602001916102d5565b820191906000526020600020905b8154815290600101906020018083116102b857829003601f168201915b505050505081565b6005805461025c90610915565b6009805461025c90610915565b6003805461025c90610915565b600a805461025c90610915565b6000600b61031f858261099e565b50600c61032c848261099e565b50600d610339838261099e565b506001949350505050565b61034c610569565b61035660006105c3565b565b600b805461025c90610915565b600c805461025c90610915565b6004805461025c90610915565b6000600361038d888261099e565b50600461039a878261099e565b5060056103a7868261099e565b5060066103b4858261099e565b5060076103c1848261099e565b5060086103ce838261099e565b506001979650505050505050565b60006001600380546103ed90610915565b905010156103fb5750600090565b60016006805461040a90610915565b905010156104185750600090565b60016008805461042790610915565b905010156104355750600090565b60016007805461044490610915565b905010156104525750600090565b6001600b805461046190610915565b9050101561046f5750600090565b60016009805461047e90610915565b9050101561048c5750600090565b50600190565b6007805461025c90610915565b600060096104ad848261099e565b50600a6104ba838261099e565b5060019392505050565b6008805461025c90610915565b6104d9610569565b6001600160a01b0381166105435760405162461bcd60e51b815260206004820152602660248201527f4f776e61626c653a206e6577206f776e657220697320746865207a65726f206160448201526564647265737360d01b60648201526084015b60405180910390fd5b61054c816105c3565b50565b6006805461025c90610915565b600d805461025c90610915565b6000546001600160a01b031633146103565760405162461bcd60e51b815260206004820181905260248201527f4f776e61626c653a2063616c6c6572206973206e6f7420746865206f776e6572604482015260640161053a565b600080546001600160a01b038381166001600160a01b0319831681178455604051919092169283917f8be0079c531659141344cd1fd0a4f28419497f9722a3daafe3b4186f6b6457e09190a35050565b600060208083528351808285015260005b8181101561064057858101830151858201604001528201610624565b506000604082860101526040601f19601f8301168501019250505092915050565b634e487b7160e01b600052604160045260246000fd5b600082601f83011261068857600080fd5b813567ffffffffffffffff808211156106a3576106a3610661565b604051601f8301601f19908116603f011681019082821181831017156106cb576106cb610661565b816040528381528660208588010111156106e457600080fd5b836020870160208301376000602085830101528094505050505092915050565b60008060006060848603121561071957600080fd5b833567ffffffffffffffff8082111561073157600080fd5b61073d87838801610677565b9450602086013591508082111561075357600080fd5b61075f87838801610677565b9350604086013591508082111561077557600080fd5b5061078286828701610677565b9150509250925092565b60008060008060008060c087890312156107a557600080fd5b863567ffffffffffffffff808211156107bd57600080fd5b6107c98a838b01610677565b975060208901359150808211156107df57600080fd5b6107eb8a838b01610677565b9650604089013591508082111561080157600080fd5b61080d8a838b01610677565b9550606089013591508082111561082357600080fd5b61082f8a838b01610677565b9450608089013591508082111561084557600080fd5b6108518a838b01610677565b935060a089013591508082111561086757600080fd5b5061087489828a01610677565b9150509295509295509295565b6000806040838503121561089457600080fd5b823567ffffffffffffffff808211156108ac57600080fd5b6108b886838701610677565b935060208501359150808211156108ce57600080fd5b506108db85828601610677565b9150509250929050565b6000602082840312156108f757600080fd5b81356001600160a01b038116811461090e57600080fd5b9392505050565b600181811c9082168061092957607f821691505b60208210810361094957634e487b7160e01b600052602260045260246000fd5b50919050565b601f82111561099957600081815260208120601f850160051c810160208610156109765750805b601f850160051c820191505b8181101561099557828155600101610982565b5050505b505050565b815167ffffffffffffffff8111156109b8576109b8610661565b6109cc816109c68454610915565b8461094f565b602080601f831160018114610a0157600084156109e95750858301515b600019600386901b1c1916600185901b178555610995565b600085815260208120601f198616915b82811015610a3057888601518255948401946001909101908401610a11565b5085821015610a4e5787850151600019600388901b60f8161c191681555b5050505050600190811b0190555056fea26469706673582212203e3ec02bc7d8f9a4a7b160f814c0df700dd6e9f38663ac3235407dd51cddaea564736f6c63430008110033",
    "linkReferences": {}
  },
  "methodIdentifiers": {
    "address1()": "3a36399e",
    "address2()": "9eea4a3a",
    "address3()": "1e38046c",
    "city()": "fd0160fe",
    "country()": "d8b0b499",
    "email()": "820e93f5",
    "entityType()": "838453fd",
    "govID()": "51afd316",
    "isInfoCompleted()": "ae18836b",
    "name()": "06fdde03",
    "owner()": "8da5cb5b",
    "phone1()": "99bce2df",
    "phone2()": "fe6eb248",
    "renounceOwnership()": "715018a6",
    "setAddressInfo(string,string,string,string,string,string)": "ae15b197",
    "setContactInfo(string,string,string)": "5605e135",
    "setGovIdInfo(string,string)": "d7295690",
    "state()": "c19d93fb",
    "taxID()": "26ffbdfd",
    "transferOwnership(address)": "f2fde38b"
  },
  "id": 0
}