{
  "abi": [
    {
      "inputs": [
        {
          "internalType": "string",
          "name": "_name",
          "type": "string"
        },
        {
          "internalType": "uint8",
          "name": "_entityType",
          "type": "uint8"
        }
      ],
      "stateMutability": "nonpayable",
      "type": "constructor"
    },
    {
      "anonymous": false,
      "inputs": [
        {
          "indexed": true,
          "internalType": "address",
          "name": "previousOwner",
          "type": "address"
        },
        {
          "indexed": true,
          "internalType": "address",
          "name": "newOwner",
          "type": "address"
        }
      ],
      "name": "OwnershipTransferred",
      "type": "event"
    },
    {
      "inputs": [],
      "name": "isInfoCompleted",
      "outputs": [
        {
          "internalType": "bool",
          "name": "",
          "type": "bool"
        }
      ],
      "stateMutability": "view",
      "type": "function"
    },
    {
      "inputs": [],
      "name": "owner",
      "outputs": [
        {
          "internalType": "address",
          "name": "",
          "type": "address"
        }
      ],
      "stateMutability": "view",
      "type": "function"
    },
    {
      "inputs": [],
      "name": "renounceOwnership",
      "outputs": [],
      "stateMutability": "nonpayable",
      "type": "function"
    },
    {
      "inputs": [
        {
          "internalType": "string",
          "name": "_address1",
          "type": "string"
        },
        {
          "internalType": "string",
          "name": "_address2",
          "type": "string"
        },
        {
          "internalType": "string",
          "name": "_address3",
          "type": "string"
        },
        {
          "internalType": "string",
          "name": "_city",
          "type": "string"
        },
        {
          "internalType": "string",
          "name": "_state",
          "type": "string"
        },
        {
          "internalType": "string",
          "name": "_country",
          "type": "string"
        }
      ],
      "name": "setAddressInfo",
      "outputs": [
        {
          "internalType": "bool",
          "name": "",
          "type": "bool"
        }
      ],
      "stateMutability": "nonpayable",
      "type": "function"
    },
    {
      "inputs": [
        {
          "internalType": "string",
          "name": "_email",
          "type": "string"
        },
        {
          "internalType": "string",
          "name": "_phone1",
          "type": "string"
        },
        {
          "internalType": "string",
          "name": "_phone2",
          "type": "string"
        }
      ],
      "name": "setContactInfo",
      "outputs": [
        {
          "internalType": "bool",
          "name": "",
          "type": "bool"
        }
      ],
      "stateMutability": "nonpayable",
      "type": "function"
    },
    {
      "inputs": [
        {
          "internalType": "string",
          "name": "_taxID1",
          "type": "string"
        },
        {
          "internalType": "string",
          "name": "_taxID2",
          "type": "string"
        }
      ],
      "name": "setGovIdInfo",
      "outputs": [
        {
          "internalType": "bool",
          "name": "",
          "type": "bool"
        }
      ],
      "stateMutability": "nonpayable",
      "type": "function"
    },
    {
      "inputs": [
        {
          "internalType": "address",
          "name": "newOwner",
          "type": "address"
        }
      ],
      "name": "transferOwnership",
      "outputs": [],
      "stateMutability": "nonpayable",
      "type": "function"
    }
  ],
  "bytecode": {
    "object": "0x60806040523480156200001157600080fd5b5060405162000b2338038062000b238339810160408190526200003491620000e6565b6200003f3362000069565b60016200004d83826200025d565b506002805460ff191660ff929092169190911790555062000329565b600080546001600160a01b038381166001600160a01b0319831681178455604051919092169283917f8be0079c531659141344cd1fd0a4f28419497f9722a3daafe3b4186f6b6457e09190a35050565b634e487b7160e01b600052604160045260246000fd5b805160ff81168114620000e157600080fd5b919050565b60008060408385031215620000fa57600080fd5b82516001600160401b03808211156200011257600080fd5b818501915085601f8301126200012757600080fd5b8151818111156200013c576200013c620000b9565b604051601f8201601f19908116603f01168101908382118183101715620001675762000167620000b9565b816040528281526020935088848487010111156200018457600080fd5b600091505b82821015620001a8578482018401518183018501529083019062000189565b6000848483010152809650505050620001c3818601620000cf565b925050509250929050565b600181811c90821680620001e357607f821691505b6020821081036200020457634e487b7160e01b600052602260045260246000fd5b50919050565b601f8211156200025857600081815260208120601f850160051c81016020861015620002335750805b601f850160051c820191505b8181101562000254578281556001016200023f565b5050505b505050565b81516001600160401b03811115620002795762000279620000b9565b62000291816200028a8454620001ce565b846200020a565b602080601f831160018114620002c95760008415620002b05750858301515b600019600386901b1c1916600185901b17855562000254565b600085815260208120601f198616915b82811015620002fa57888601518255948401946001909101908401620002d9565b5085821015620003195787850151600019600388901b60f8161c191681555b5050505050600190811b01905550565b6107ea80620003396000396000f3fe608060405234801561001057600080fd5b506004361061007d5760003560e01c8063ae15b1971161005b578063ae15b197146100cf578063ae18836b146100e2578063d7295690146100ea578063f2fde38b146100fd57600080fd5b80635605e13514610082578063715018a6146100aa5780638da5cb5b146100b4575b600080fd5b61009561009036600461045a565b610110565b60405190151581526020015b60405180910390f35b6100b2610143565b005b6000546040516001600160a01b0390911681526020016100a1565b6100956100dd3660046104e2565b610157565b6100956101b4565b6100956100f83660046105d7565b61026a565b6100b261010b36600461063b565b61028f565b6000600b61011e85826106f4565b50600c61012b84826106f4565b50600d61013883826106f4565b506001949350505050565b61014b61030d565b6101556000610367565b565b6000600361016588826106f4565b50600461017287826106f4565b50600561017f86826106f4565b50600661018c85826106f4565b50600761019984826106f4565b5060086101a683826106f4565b506001979650505050505050565b60006001600380546101c59061066b565b905010156101d35750600090565b6001600680546101e29061066b565b905010156101f05750600090565b6001600880546101ff9061066b565b9050101561020d5750600090565b60016007805461021c9061066b565b9050101561022a5750600090565b6001600b80546102399061066b565b905010156102475750600090565b6001600980546102569061066b565b905010156102645750600090565b50600190565b6000600961027884826106f4565b50600a61028583826106f4565b5060019392505050565b61029761030d565b6001600160a01b0381166103015760405162461bcd60e51b815260206004820152602660248201527f4f776e61626c653a206e6577206f776e657220697320746865207a65726f206160448201526564647265737360d01b60648201526084015b60405180910390fd5b61030a81610367565b50565b6000546001600160a01b031633146101555760405162461bcd60e51b815260206004820181905260248201527f4f776e61626c653a2063616c6c6572206973206e6f7420746865206f776e657260448201526064016102f8565b600080546001600160a01b038381166001600160a01b0319831681178455604051919092169283917f8be0079c531659141344cd1fd0a4f28419497f9722a3daafe3b4186f6b6457e09190a35050565b634e487b7160e01b600052604160045260246000fd5b600082601f8301126103de57600080fd5b813567ffffffffffffffff808211156103f9576103f96103b7565b604051601f8301601f19908116603f01168101908282118183101715610421576104216103b7565b8160405283815286602085880101111561043a57600080fd5b836020870160208301376000602085830101528094505050505092915050565b60008060006060848603121561046f57600080fd5b833567ffffffffffffffff8082111561048757600080fd5b610493878388016103cd565b945060208601359150808211156104a957600080fd5b6104b5878388016103cd565b935060408601359150808211156104cb57600080fd5b506104d8868287016103cd565b9150509250925092565b60008060008060008060c087890312156104fb57600080fd5b863567ffffffffffffffff8082111561051357600080fd5b61051f8a838b016103cd565b9750602089013591508082111561053557600080fd5b6105418a838b016103cd565b9650604089013591508082111561055757600080fd5b6105638a838b016103cd565b9550606089013591508082111561057957600080fd5b6105858a838b016103cd565b9450608089013591508082111561059b57600080fd5b6105a78a838b016103cd565b935060a08901359150808211156105bd57600080fd5b506105ca89828a016103cd565b9150509295509295509295565b600080604083850312156105ea57600080fd5b823567ffffffffffffffff8082111561060257600080fd5b61060e868387016103cd565b9350602085013591508082111561062457600080fd5b50610631858286016103cd565b9150509250929050565b60006020828403121561064d57600080fd5b81356001600160a01b038116811461066457600080fd5b9392505050565b600181811c9082168061067f57607f821691505b60208210810361069f57634e487b7160e01b600052602260045260246000fd5b50919050565b601f8211156106ef57600081815260208120601f850160051c810160208610156106cc5750805b601f850160051c820191505b818110156106eb578281556001016106d8565b5050505b505050565b815167ffffffffffffffff81111561070e5761070e6103b7565b6107228161071c845461066b565b846106a5565b602080601f831160018114610757576000841561073f5750858301515b600019600386901b1c1916600185901b1785556106eb565b600085815260208120601f198616915b8281101561078657888601518255948401946001909101908401610767565b50858210156107a45787850151600019600388901b60f8161c191681555b5050505050600190811b0190555056fea26469706673582212207fc9c19fccae13264832700b5337949a3b4132e9189cac24698f93f84ff9949b64736f6c63430008110033",
    "linkReferences": {}
  },
  "methodIdentifiers": {
    "isInfoCompleted()": "ae18836b",
    "owner()": "8da5cb5b",
    "renounceOwnership()": "715018a6",
    "setAddressInfo(string,string,string,string,string,string)": "ae15b197",
    "setContactInfo(string,string,string)": "5605e135",
    "setGovIdInfo(string,string)": "d7295690",
    "transferOwnership(address)": "f2fde38b"
  },
  "id": 0
}